:03000000020AE40D
:0C0AE400787FE4F6D8FD758120020B2B12
:1009B800200D0A005265736F757263657320617646
:1009C80061696C61626C653A2044534F2D00414661
:1009D800472D00444D4D2D004450532D0050726555
:1009E8007373204920666F7220497373756520619F
:1009F8006E64205220666F722052657475726E0D97
:100A08000A00456E746572205265736F757263656E
:100A180020746F20626520626F72726F7765643A26
:100A28000D0A00456E746572207175616E74697483
:100A3800793A0D0A005265717565737465642072A0
:100A480065736F75726365206E6F74206176616976
:100A58006C61626C652E2E2E00526571756573741B
:100A68006564207265736F7572636520616C6C6F65
:100A780063617465642100456E7465722052657304
:100A88006F7572636520746F206265207265747576
:100A9800726E65643A0D0A00596F752063616E9233
:100AA800742072657475726E207768617420796F2E
:100AB8007520646F6E927420686176652E2E2E0004
:100AC80052657475726E6564207265736F757263B2
:0C0AD80065207265636569766564210025
:0A0C7600C101C100040D3535383608
:100B7000E4F5A0C282C280C2817F38FE120C32121C
:100B80000BF57F067E00120C32120BF57F0C7E00F7
:100B9000120C32120BF57F017E00120C32120BF593
:070BA0007F807E00020C3291
:040BF5007F047E00FB
:100BF900E4FDFCC3ED9FEC9E5015E4FBFA0BBB0032
:0F0C0900010ABA01F8BB7EF50DBD00010C80E4B5
:010C180022B9
:100C3200C280C281D2828FA07F0A7E00120BF9C2CB
:020C420082220C
:100C4400D280C281D2828FA07F0A7E00120BF9C2A9
:020C54008222FA
:100BD0008B118A128913AB11AA12A913120C196076
:100BE000130513E5137002051214F9120C19FF1204
:050BF0000C4480E2222C
:100C5600758920758DF3D2AFD2AC759853D28E229A
:080C8B008F993001FDC2012226
:040BA7007A0A7961EC
:100BAB008B0A8A0B890CAB0AAA0BA90C120C1960C5
:100BBB0013050CE50C7002050B14F9120C19FF123E
:050BCB000C8B80E2220A
:090C8100E4FF3000FDC200AF9950
:010C8A002247
:03002300020C6666
:100C6600309905C299D20132309804C298D2003226
:10080000120C567BFF7A0979B8120BAB7BFF7A0981
:1008100079BC120BABAF0D120C8B7BFF7A0979D62A
:10082000120BABAF0E120C8B7BFF7A0979DB120B2C
:10083000ABAF0F120C8B7BFF7A0979E0120BABAFD9
:1008400010120C8B7BFF7A0979B8120BAB7BFF7A05
:100850000979E5120BAB120C818F08E50864496039
:1008600009E508646960030209037BFF7A0A790AD3
:10087000120BAB120C818F097BFF7A0A792B120BBA
:10088000AB120C81AE07E509B43118E50DC39E7BB0
:10089000FF50028059120BA7C3E50D9E2430F50DC1
:1008A000020803E509B43218E50EC39E7BFF50022F
:1008B000803C120BA7C3E50E9E2430F50E02080300
:1008C000E509B43318E50FC39E7BFF5002801F1269
:1008D0000BA7C3E50F9E2430F50F020803E509645A
:1008E000346003020803E510C39E7BFF50077A0AB9
:1008F000793D02099F120BA7C3E5109E2430F51025
:100900000208037F018F08EF70030209B67BFF7AAC
:100910000A797F120BAB120C81AC077BFF7A0A7944
:100920002B120BAB120C81AD07BC311EE50D7BFF0A
:10093000B435067A0A79A080667A0A79C8120BABB8
:10094000E50D2D24D0F50D020803BC321EE50E7B0B
:10095000FFB435067A0A79A080457A0A79C8120B65
:10096000ABE50E2D24D0F50E020803BC331EE50FB7
:100970007BFFB438067A0A79A080247A0A79C812F3
:100980000BABE50F2D24D0F50F020803EC643460A7
:1009900003020803E5107BFFB4360A7A0A79A01235
:1009A0000BAB0208037A0A79C8120BABE5102D24B1
:0809B000D0F51002080380FEDF
:100AF000020800E493A3F8E493A34003F68001F214
:100B000008DFF48029E493A3F85407240CC8C33306
:100B1000C4540F4420C8834004F456800146F6DFD5
:100B2000E4800B0102040810204080900C76E47EE3
:100B3000019360BCA3FF543F30E509541FFEE493CA
:100B4000A360010ECF54C025E060A840B8E493A391
:100B5000FAE493A3F8E493A3C8C582C8CAC583CABC
:100B6000F0A3C8C582C8CAC583CADFE9DEE780BE74
:010C80000073
:100C1900BB010689828A83E0225002E722BBFE02D9
:090C2900E32289828A83E493220C
:00000001FF
