:03000000020CA847
:0C0CA800787FE4F6D8FD75814D0208004D
:0E0C9A0050726F64313D0054696D65313D004C
:100BF600E4F5A0C282C280C2817F38FE120C761252
:100C06000C527F067E00120C76120C527F0C7E0070
:100C1600120C76120C527F017E00120C76120C52C8
:070C26007F807E00020C76C6
:040C52007F047E009D
:100C5600E4FDFCC3ED9FEC9E5015E4FBFA0BBB00D4
:0F0C6600010ABA01F8BB7EF50DBD00010C80E458
:010C7500225C
:100C7600C280C281D2828FA07F0A7E00120C56C229
:020C86008222C8
:100C8800D280C281D2828FA07F0A7E00120C56C207
:020C98008222B6
:100C2D008B4B8A4C894DAB4BAA4CA94D120A3560A2
:100C3D0013054DE54D7002054C14F9120A35FF12DE
:050C4D000C8880E2228A
:10080000120BF6758901E4F58CF58A7542EB75419A
:1008100038F540F53F7546BC754521F544F543D2A2
:100820008C7B0AFAF9F8AF42AE41AD40AC3F120BF7
:100830000F8F228E218D208C1FE47B0AFAF9F8AFEE
:1008400042AE41AD40AC3F120B0FAC00AD01AE0269
:10085000AF038F1A8E198D188C17E47B0AFAF9F8FA
:10086000AF46AE45AD44AC43120B0F8F2A8E298D97
:10087000288C27E47B0AFAF9F8AF46AE45AD44ACC4
:1008800043120B0FAC00AD01AE02AF038F1E8E1DE5
:100890008D1C8C1BAB1AAA19A918A817120A848FD1
:1008A000268E258D248C23AF2AAE29AD28AC27AB0C
:1008B0001AAA19A918A817120A848F2E8E2D8D2C0A
:1008C0008C2BAF1EAE1DAD1CAC1BAB22AA21A920E8
:1008D000A81F120A848F328E318D308C2FAF2AAE32
:1008E00029AD28AC27AB22AA21A920A81F120A846F
:1008F0008F368E358D348C33E52E2532FFE52D3540
:1009000031FEE52C3530FDE52B352FFCE47B0AFA72
:10091000F9F8120A84EF2526FFEE3525FEED352481
:10092000FDEC3523FCC004C005C006C007E47F64AD
:10093000FEFDFCAB36AA35A934A833120A84D003D5
:10094000D002D001D000EF2BF54AEE3AF549ED394F
:10095000F548EC38F547C28C753D00753E09E47BDF
:100960000AFAF9F8AF4AAE49AD48AC47120B0FEBA3
:100970002430FF7408253EF8A607AF4AAE49AD48BB
:10098000AC47E47B0AFAF9F8120B0F8F4A8E498DB7
:10099000488C47E53E153E7002153DE53EB4FFBE6E
:1009A000E53DB4FFB9AF8CEFFEAD8A7C00E42DFFCE
:1009B000EC3EC313F537EF13F538753900753A047B
:1009C000AE37AF387C007D0A120A4EED2430FF743A
:1009D00012253AF8A607AE37AF387C007D0A120A16
:1009E0004E8E378F38E53A153A70021539E53AB42C
:1009F000FFCEE539B4FFC97F807E00120C767BFF05
:100A00007A0C799A120C2D7B007A007908120C2D41
:100A10007FC07E00120C767BFF7A0C79A1120C2D20
:100A20007B007A007912120C2D7F75120C887F736F
:050A3000120C8880FE9D
:100A3500BB010689828A83E0225002E722BBFE02BF
:090A4500E32289828A83E49322F2
:100A4E00C2D5EC30E709B2D5E4C39DFDE49CFCEEC3
:100A5E0030E715B2D5E4C39FFFE49EFE120BA1C38F
:100A6E00E49DFDE49CFC8003120BA130D507C3E48A
:060A7E009FFFE49EFE2232
:100A8400E88FF0A4CC8BF0A42CFCE98EF0A42CFC11
:100A94008AF0EDA42CFCEA8EF0A4CDA8F08BF0A48F
:100AA4002DCC3825F0FDE98FF0A42CCD35F0FCEBEE
:100AB4008EF0A4FEA9F0EB8FF0A4CFC5F02ECD39B3
:0F0AC400FEE43CFCEAA42DCE35F0FDE43CFC2220
:100AD30075F008758200EF2FFFEE33FECD33CDCCDA
:100AE30033CCC58233C5829BED9AEC99E58298405D
:100AF3000CF582EE9BFEED9AFDEC99FC0FD5F0D63A
:100B0300E4CEFBE4CDFAE4CCF9A88222B800C1B963
:100B13000059BA002DEC8BF084CFCECDFCE5F0CBA1
:100B2300F97818EF2FFFEE33FEED33FDEC33FCEBDA
:100B330033FB10D703994004EB99FB0FD8E5E4F995
:100B4300FA227818EF2FFFEE33FEED33FDEC33FC82
:100B5300C933C910D7059BE99A4007EC9BFCE99A76
:100B6300F90FD8E0E4C9FAE4CCFB2275F010EF2FBB
:100B7300FFEE33FEED33FDCC33CCC833C810D707BB
:100B83009BEC9AE899400AED9BFDEC9AFCE899F8F6
:0E0B93000FD5F0DAE4CDFBE4CCFAE4C8F92289
:100BA100BC000BBE0029EF8DF084FFADF022E4CC38
:100BB100F875F008EF2FFFEE33FEEC33FCEE9DEC01
:100BC100984005FCEE9DFE0FD5F0E9E4CEFD22ED47
:100BD100F8F5F0EE8420D21CFEADF075F008EF2F91
:100BE100FFED33FD4007985006D5F0F222C398FD82
:050BF1000FD5F0EA221F
:00000001FF
