:03000000020949A9
:0C094900787FE4F6D8FD7581300209903B
:100A0C00454E5445522050415353574F5244203A6F
:100A1C000020414343455353204752414E544544D3
:100A2C00200020204143434553532044454E494523
:030A3C0044200053
:100AB700100841333231423635344339383744230D
:020AC700302AD3
:1009D500E4F5A0C282C280C2817F38FE120AA51248
:1009E5000A647F067E00120AA5120A647F0C7E0047
:1009F500120AA5120A647F017E00120AA5120A6472
:070A05007F807E00020AA5BC
:040A64007F047E008D
:100A6800E4FDFCC3ED9FEC9E5015E4FBFA0BBB00C4
:0F0A7800010ABA01F8BB7EF50DBD00010C80E448
:010A8700224C
:040AA1007F807E00D4
:100AA500C280C281D2828FA07F0A7E00120A68C2EC
:020AB50082229B
:100ACA00D280C281D2828FA07F0A7E00120A68C2B7
:020ADA00822276
:100A3F008B2E8A2F8930AB2EAA2FA930120A8860ED
:100A4F00130530E5307002052F14F9120A88FF12D2
:050A5F000ACA80E2223A
:100800001209D5120AA1120A647BFF7A0A790C1226
:100810000A3FE4F523F524E4F5B08006E51A640FF9
:10082000600D75B00F85B01A80F2E51AB40F087527
:10083000B00F85B01A80F37F147E00120A6875B07D
:100840000F85B01AE51A640F60D8751CEFE4F52126
:10085000F522851CB085B01A531A0FE4F51FF52058
:10086000E51A5401F51BE51AC313F51AE51B7008C8
:10087000851F18852019801BE5206403451F70051E
:10088000F5187519050520E5207002051F6404455B
:100890001F70CDC3E5199404E51864809480502C32
:1008A000E52225E025E024082519F8E6FFAE2474AA
:1008B000252EF8A60774262EF8E4F67FC0FE120A4D
:1008C000A57B007A007925120A3F8022531C7FE520
:1008D0001C25E0F51C431C0F0522E52270020521B2
:1008E000C39404E5216480948050030208520524D7
:1008F000E52470020523C39408E5236480948050A6
:1009000003020817E52564317031E5266435702B44
:10091000E52764417025E5286438701FE529B42A6D
:100920001AE52AB44415E52BB43610E52CB4230B94
:10093000120AA17BFF7A0A791D8009120AA17BFFA6
:090940007A0A792E120A3F80FEAA
:10095500020800E493A3F8E493A34003F68001F2B0
:1009650008DFF48029E493A3F85407240CC8C333A3
:10097500C4540F4420C8834004F456800146F6DF72
:10098500E4800B0102040810204080900AB7E47E41
:10099500019360BCA3FF543F30E509541FFEE49367
:1009A500A360010ECF54C025E060A840B8E493A32E
:1009B500FAE493A3F8E493A3C8C582C8CAC583CA59
:1009C500F0A3C8C582C8CAC583CADFE9DEE780BE11
:010AC900002C
:100A8800BB010689828A83E0225002E722BBFE026C
:090A9800E32289828A83E493229F
:00000001FF
