:03000000020CB738
:0C0CB700787FE4F6D8FD75814902080042
:0E0CA90050726F64313D0054696D65313D003D
:100C0500E4F5A0C282C280C2817F38FE120C851233
:100C15000C617F067E00120C85120C617F0C7E0034
:100C2500120C85120C617F017E00120C85120C617D
:070C35007F807E00020C85A8
:040C61007F047E008E
:100C6500E4FDFCC3ED9FEC9E5015E4FBFA0BBB00C5
:0F0C7500010ABA01F8BB7EF50DBD00010C80E449
:010C8400224D
:100C8500C280C281D2828FA07F0A7E00120C65C20B
:020C95008222B9
:100C9700D280C281D2828FA07F0A7E00120C65C2E9
:020CA7008222A7
:100C3C008B478A488949AB47AA48A949120A44609C
:100C4C00130549E5497002054814F9120A44FF12CC
:050C5C000C9780E2226C
:10080000120C05758901E4F58CF58A753EEB753D92
:1008100038F53CF53B7542BC754121F540F53FD2BA
:100820008C7B0AFAF9F8AF3EAE3DAD3CAC3B120B07
:100830001E8F228E218D208C1FE47B0AFAF9F8AFDF
:100840003EAE3DAD3CAC3B120B1EAC00AD01AE026A
:10085000AF038F1A8E198D188C17E47B0AFAF9F8FA
:10086000AF42AE41AD40AC3F120B1E8F2A8E298D98
:10087000288C27E47B0AFAF9F8AF42AE41AD40ACD0
:100880003F120B1EAC00AD01AE02AF038F1E8E1DDA
:100890008D1C8C1BAB1AAA19A918A817120A938FC2
:1008A000268E258D248C23E51E252AFBE51D352962
:1008B000FAE51C3528F9E51B3527F8E51A2522FF4E
:1008C000E5193521FEE5183520FDE517351FFC1229
:1008D0000A938F2E8E2D8D2C8C2BAF2AAE29AD280E
:1008E000AC27AB22AA21A920A81F120A938F328E0F
:1008F000318D308C2FC3E52E9526FFE52D9525FEF5
:10090000E52C9524FDE52B9523FCC3EF9532FFEEF6
:100910009531FEED9530FDEC952FFCE47B0AFAF95C
:10092000F8120A93EF2526FFEE3525FEED3524FD5E
:10093000EC3523FCC004C005C006C007E47F64FE9C
:10094000FDFCAB32AA31A930A82F120A93D003D0F4
:1009500002D001D000EF2BF546EE3AF545ED39F522
:1009600044EC38F543C28C753900753A09E47B0ACA
:10097000FAF9F8AF46AE45AD44AC43120B1EEB247A
:1009800030FF7408253AF8A607AF46AE45AD44AC33
:1009900043E47B0AFAF9F8120B1E8F468E458D440C
:1009A0008C43E53A153A70021539E53AB4FFBEE5D5
:1009B00039B4FFB9AF8CEFFEAD8A7C00E42DFFECBB
:1009C0003EC313F533EF13F534753500753604AEB9
:1009D00033AF347C007D0A120A5DED2430FF7412BF
:1009E0002536F8A607AE33AF347C007D0A120A5DC7
:1009F0008E338F34E536153670021535E536B4FF83
:100A0000CEE535B4FFC97F807E00120C857BFF7A6E
:100A10000C79A9120C3C7B007A007908120C3C7FFF
:100A2000C07E00120C857BFF7A0C79B0120C3C7BE7
:100A3000007A007912120C3C7F75120C977F7312AA
:040A40000C9780FE91
:100A4400BB010689828A83E0225002E722BBFE02B0
:090A5400E32289828A83E49322E3
:100A5D00C2D5EC30E709B2D5E4C39DFDE49CFCEEB4
:100A6D0030E715B2D5E4C39FFFE49EFE120BB0C371
:100A7D00E49DFDE49CFC8003120BB030D507C3E46C
:060A8D009FFFE49EFE2223
:100A9300E88FF0A4CC8BF0A42CFCE98EF0A42CFC02
:100AA3008AF0EDA42CFCEA8EF0A4CDA8F08BF0A480
:100AB3002DCC3825F0FDE98FF0A42CCD35F0FCEBDF
:100AC3008EF0A4FEA9F0EB8FF0A4CFC5F02ECD39A4
:0F0AD300FEE43CFCEAA42DCE35F0FDE43CFC2211
:100AE20075F008758200EF2FFFEE33FECD33CDCCCB
:100AF20033CCC58233C5829BED9AEC99E58298404E
:100B02000CF582EE9BFEED9AFDEC99FC0FD5F0D62A
:100B1200E4CEFBE4CDFAE4CCF9A88222B800C1B954
:100B22000059BA002DEC8BF084CFCECDFCE5F0CB92
:100B3200F97818EF2FFFEE33FEED33FDEC33FCEBCB
:100B420033FB10D703994004EB99FB0FD8E5E4F986
:100B5200FA227818EF2FFFEE33FEED33FDEC33FC73
:100B6200C933C910D7059BE99A4007EC9BFCE99A67
:100B7200F90FD8E0E4C9FAE4CCFB2275F010EF2FAC
:100B8200FFEE33FEED33FDCC33CCC833C810D707AC
:100B92009BEC9AE899400AED9BFDEC9AFCE899F8E7
:0E0BA2000FD5F0DAE4CDFBE4CCFAE4C8F9227A
:100BB000BC000BBE0029EF8DF084FFADF022E4CC29
:100BC000F875F008EF2FFFEE33FEEC33FCEE9DECF2
:100BD000984005FCEE9DFE0FD5F0E9E4CEFD22ED38
:100BE000F8F5F0EE8420D21CFEADF075F008EF2F82
:100BF000FFED33FD4007985006D5F0F222C398FD73
:050C00000FD5F0EA220F
:00000001FF
